{
  "_format": "hh-sol-artifact-1",
  "contractName": "GovernorContract",
  "sourceName": "contracts/governance_standard/GovernorContract.sol",
  "abi": [
    {
      "inputs": [
        {
          "internalType": "contract IVotes",
          "name": "_token",
          "type": "address"
        },
        {
          "internalType": "contract TimelockController",
          "name": "_timelock",
          "type": "address"
        },
        {
          "internalType": "uint256",
          "name": "_votingDelay",
          "type": "uint256"
        },
        {
          "internalType": "uint256",
          "name": "_votingPeriod",
          "type": "uint256"
        },
        {
          "internalType": "uint256",
          "name": "_quorumPercentage",
          "type": "uint256"
        }
      ],
      "stateMutability": "nonpayable",
      "type": "constructor"
    },
    {
      "inputs": [],
      "name": "Empty",
      "type": "error"
    },
    {
      "anonymous": false,
      "inputs": [
        {
          "indexed": false,
          "internalType": "uint256",
          "name": "proposalId",
          "type": "uint256"
        }
      ],
      "name": "ProposalCanceled",
      "type": "event"
    },
    {
      "anonymous": false,
      "inputs": [
        {
          "indexed": false,
          "internalType": "uint256",
          "name": "proposalId",
          "type": "uint256"
        },
        {
          "indexed": false,
          "internalType": "address",
          "name": "proposer",
          "type": "address"
        },
        {
          "indexed": false,
          "internalType": "address[]",
          "name": "targets",
          "type": "address[]"
        },
        {
          "indexed": false,
          "internalType": "uint256[]",
          "name": "values",
          "type": "uint256[]"
        },
        {
          "indexed": false,
          "internalType": "string[]",
          "name": "signatures",
          "type": "string[]"
        },
        {
          "indexed": false,
          "internalType": "bytes[]",
          "name": "calldatas",
          "type": "bytes[]"
        },
        {
          "indexed": false,
          "internalType": "uint256",
          "name": "startBlock",
          "type": "uint256"
        },
        {
          "indexed": false,
          "internalType": "uint256",
          "name": "endBlock",
          "type": "uint256"
        },
        {
          "indexed": false,
          "internalType": "string",
          "name": "description",
          "type": "string"
        }
      ],
      "name": "ProposalCreated",
      "type": "event"
    },
    {
      "anonymous": false,
      "inputs": [
        {
          "indexed": false,
          "internalType": "uint256",
          "name": "proposalId",
          "type": "uint256"
        }
      ],
      "name": "ProposalExecuted",
      "type": "event"
    },
    {
      "anonymous": false,
      "inputs": [
        {
          "indexed": false,
          "internalType": "uint256",
          "name": "proposalId",
          "type": "uint256"
        },
        {
          "indexed": false,
          "internalType": "uint256",
          "name": "eta",
          "type": "uint256"
        }
      ],
      "name": "ProposalQueued",
      "type": "event"
    },
    {
      "anonymous": false,
      "inputs": [
        {
          "indexed": false,
          "internalType": "uint256",
          "name": "oldProposalThreshold",
          "type": "uint256"
        },
        {
          "indexed": false,
          "internalType": "uint256",
          "name": "newProposalThreshold",
          "type": "uint256"
        }
      ],
      "name": "ProposalThresholdSet",
      "type": "event"
    },
    {
      "anonymous": false,
      "inputs": [
        {
          "indexed": false,
          "internalType": "uint256",
          "name": "oldQuorumNumerator",
          "type": "uint256"
        },
        {
          "indexed": false,
          "internalType": "uint256",
          "name": "newQuorumNumerator",
          "type": "uint256"
        }
      ],
      "name": "QuorumNumeratorUpdated",
      "type": "event"
    },
    {
      "anonymous": false,
      "inputs": [
        {
          "indexed": false,
          "internalType": "address",
          "name": "oldTimelock",
          "type": "address"
        },
        {
          "indexed": false,
          "internalType": "address",
          "name": "newTimelock",
          "type": "address"
        }
      ],
      "name": "TimelockChange",
      "type": "event"
    },
    {
      "anonymous": false,
      "inputs": [
        {
          "indexed": true,
          "internalType": "address",
          "name": "voter",
          "type": "address"
        },
        {
          "indexed": false,
          "internalType": "uint256",
          "name": "proposalId",
          "type": "uint256"
        },
        {
          "indexed": false,
          "internalType": "uint8",
          "name": "support",
          "type": "uint8"
        },
        {
          "indexed": false,
          "internalType": "uint256",
          "name": "weight",
          "type": "uint256"
        },
        {
          "indexed": false,
          "internalType": "string",
          "name": "reason",
          "type": "string"
        }
      ],
      "name": "VoteCast",
      "type": "event"
    },
    {
      "anonymous": false,
      "inputs": [
        {
          "indexed": true,
          "internalType": "address",
          "name": "voter",
          "type": "address"
        },
        {
          "indexed": false,
          "internalType": "uint256",
          "name": "proposalId",
          "type": "uint256"
        },
        {
          "indexed": false,
          "internalType": "uint8",
          "name": "support",
          "type": "uint8"
        },
        {
          "indexed": false,
          "internalType": "uint256",
          "name": "weight",
          "type": "uint256"
        },
        {
          "indexed": false,
          "internalType": "string",
          "name": "reason",
          "type": "string"
        },
        {
          "indexed": false,
          "internalType": "bytes",
          "name": "params",
          "type": "bytes"
        }
      ],
      "name": "VoteCastWithParams",
      "type": "event"
    },
    {
      "anonymous": false,
      "inputs": [
        {
          "indexed": false,
          "internalType": "uint256",
          "name": "oldVotingDelay",
          "type": "uint256"
        },
        {
          "indexed": false,
          "internalType": "uint256",
          "name": "newVotingDelay",
          "type": "uint256"
        }
      ],
      "name": "VotingDelaySet",
      "type": "event"
    },
    {
      "anonymous": false,
      "inputs": [
        {
          "indexed": false,
          "internalType": "uint256",
          "name": "oldVotingPeriod",
          "type": "uint256"
        },
        {
          "indexed": false,
          "internalType": "uint256",
          "name": "newVotingPeriod",
          "type": "uint256"
        }
      ],
      "name": "VotingPeriodSet",
      "type": "event"
    },
    {
      "inputs": [],
      "name": "BALLOT_TYPEHASH",
      "outputs": [
        {
          "internalType": "bytes32",
          "name": "",
          "type": "bytes32"
        }
      ],
      "stateMutability": "view",
      "type": "function"
    },
    {
      "inputs": [],
      "name": "COUNTING_MODE",
      "outputs": [
        {
          "internalType": "string",
          "name": "",
          "type": "string"
        }
      ],
      "stateMutability": "pure",
      "type": "function"
    },
    {
      "inputs": [],
      "name": "EXTENDED_BALLOT_TYPEHASH",
      "outputs": [
        {
          "internalType": "bytes32",
          "name": "",
          "type": "bytes32"
        }
      ],
      "stateMutability": "view",
      "type": "function"
    },
    {
      "inputs": [
        {
          "internalType": "uint256",
          "name": "proposalId",
          "type": "uint256"
        }
      ],
      "name": "cancel",
      "outputs": [],
      "stateMutability": "nonpayable",
      "type": "function"
    },
    {
      "inputs": [
        {
          "internalType": "uint256",
          "name": "proposalId",
          "type": "uint256"
        },
        {
          "internalType": "uint8",
          "name": "support",
          "type": "uint8"
        }
      ],
      "name": "castVote",
      "outputs": [
        {
          "internalType": "uint256",
          "name": "",
          "type": "uint256"
        }
      ],
      "stateMutability": "nonpayable",
      "type": "function"
    },
    {
      "inputs": [
        {
          "internalType": "uint256",
          "name": "proposalId",
          "type": "uint256"
        },
        {
          "internalType": "uint8",
          "name": "support",
          "type": "uint8"
        },
        {
          "internalType": "uint8",
          "name": "v",
          "type": "uint8"
        },
        {
          "internalType": "bytes32",
          "name": "r",
          "type": "bytes32"
        },
        {
          "internalType": "bytes32",
          "name": "s",
          "type": "bytes32"
        }
      ],
      "name": "castVoteBySig",
      "outputs": [
        {
          "internalType": "uint256",
          "name": "",
          "type": "uint256"
        }
      ],
      "stateMutability": "nonpayable",
      "type": "function"
    },
    {
      "inputs": [
        {
          "internalType": "uint256",
          "name": "proposalId",
          "type": "uint256"
        },
        {
          "internalType": "uint8",
          "name": "support",
          "type": "uint8"
        },
        {
          "internalType": "string",
          "name": "reason",
          "type": "string"
        }
      ],
      "name": "castVoteWithReason",
      "outputs": [
        {
          "internalType": "uint256",
          "name": "",
          "type": "uint256"
        }
      ],
      "stateMutability": "nonpayable",
      "type": "function"
    },
    {
      "inputs": [
        {
          "internalType": "uint256",
          "name": "proposalId",
          "type": "uint256"
        },
        {
          "internalType": "uint8",
          "name": "support",
          "type": "uint8"
        },
        {
          "internalType": "string",
          "name": "reason",
          "type": "string"
        },
        {
          "internalType": "bytes",
          "name": "params",
          "type": "bytes"
        }
      ],
      "name": "castVoteWithReasonAndParams",
      "outputs": [
        {
          "internalType": "uint256",
          "name": "",
          "type": "uint256"
        }
      ],
      "stateMutability": "nonpayable",
      "type": "function"
    },
    {
      "inputs": [
        {
          "internalType": "uint256",
          "name": "proposalId",
          "type": "uint256"
        },
        {
          "internalType": "uint8",
          "name": "support",
          "type": "uint8"
        },
        {
          "internalType": "string",
          "name": "reason",
          "type": "string"
        },
        {
          "internalType": "bytes",
          "name": "params",
          "type": "bytes"
        },
        {
          "internalType": "uint8",
          "name": "v",
          "type": "uint8"
        },
        {
          "internalType": "bytes32",
          "name": "r",
          "type": "bytes32"
        },
        {
          "internalType": "bytes32",
          "name": "s",
          "type": "bytes32"
        }
      ],
      "name": "castVoteWithReasonAndParamsBySig",
      "outputs": [
        {
          "internalType": "uint256",
          "name": "",
          "type": "uint256"
        }
      ],
      "stateMutability": "nonpayable",
      "type": "function"
    },
    {
      "inputs": [
        {
          "internalType": "address[]",
          "name": "targets",
          "type": "address[]"
        },
        {
          "internalType": "uint256[]",
          "name": "values",
          "type": "uint256[]"
        },
        {
          "internalType": "bytes[]",
          "name": "calldatas",
          "type": "bytes[]"
        },
        {
          "internalType": "bytes32",
          "name": "descriptionHash",
          "type": "bytes32"
        }
      ],
      "name": "execute",
      "outputs": [
        {
          "internalType": "uint256",
          "name": "",
          "type": "uint256"
        }
      ],
      "stateMutability": "payable",
      "type": "function"
    },
    {
      "inputs": [
        {
          "internalType": "uint256",
          "name": "proposalId",
          "type": "uint256"
        }
      ],
      "name": "execute",
      "outputs": [],
      "stateMutability": "payable",
      "type": "function"
    },
    {
      "inputs": [
        {
          "internalType": "uint256",
          "name": "proposalId",
          "type": "uint256"
        }
      ],
      "name": "getActions",
      "outputs": [
        {
          "internalType": "address[]",
          "name": "targets",
          "type": "address[]"
        },
        {
          "internalType": "uint256[]",
          "name": "values",
          "type": "uint256[]"
        },
        {
          "internalType": "string[]",
          "name": "signatures",
          "type": "string[]"
        },
        {
          "internalType": "bytes[]",
          "name": "calldatas",
          "type": "bytes[]"
        }
      ],
      "stateMutability": "view",
      "type": "function"
    },
    {
      "inputs": [
        {
          "internalType": "uint256",
          "name": "proposalId",
          "type": "uint256"
        },
        {
          "internalType": "address",
          "name": "voter",
          "type": "address"
        }
      ],
      "name": "getReceipt",
      "outputs": [
        {
          "components": [
            {
              "internalType": "bool",
              "name": "hasVoted",
              "type": "bool"
            },
            {
              "internalType": "uint8",
              "name": "support",
              "type": "uint8"
            },
            {
              "internalType": "uint96",
              "name": "votes",
              "type": "uint96"
            }
          ],
          "internalType": "struct IGovernorCompatibilityBravo.Receipt",
          "name": "",
          "type": "tuple"
        }
      ],
      "stateMutability": "view",
      "type": "function"
    },
    {
      "inputs": [
        {
          "internalType": "address",
          "name": "account",
          "type": "address"
        },
        {
          "internalType": "uint256",
          "name": "blockNumber",
          "type": "uint256"
        }
      ],
      "name": "getVotes",
      "outputs": [
        {
          "internalType": "uint256",
          "name": "",
          "type": "uint256"
        }
      ],
      "stateMutability": "view",
      "type": "function"
    },
    {
      "inputs": [
        {
          "internalType": "address",
          "name": "account",
          "type": "address"
        },
        {
          "internalType": "uint256",
          "name": "blockNumber",
          "type": "uint256"
        },
        {
          "internalType": "bytes",
          "name": "params",
          "type": "bytes"
        }
      ],
      "name": "getVotesWithParams",
      "outputs": [
        {
          "internalType": "uint256",
          "name": "",
          "type": "uint256"
        }
      ],
      "stateMutability": "view",
      "type": "function"
    },
    {
      "inputs": [
        {
          "internalType": "uint256",
          "name": "proposalId",
          "type": "uint256"
        },
        {
          "internalType": "address",
          "name": "account",
          "type": "address"
        }
      ],
      "name": "hasVoted",
      "outputs": [
        {
          "internalType": "bool",
          "name": "",
          "type": "bool"
        }
      ],
      "stateMutability": "view",
      "type": "function"
    },
    {
      "inputs": [
        {
          "internalType": "address[]",
          "name": "targets",
          "type": "address[]"
        },
        {
          "internalType": "uint256[]",
          "name": "values",
          "type": "uint256[]"
        },
        {
          "internalType": "bytes[]",
          "name": "calldatas",
          "type": "bytes[]"
        },
        {
          "internalType": "bytes32",
          "name": "descriptionHash",
          "type": "bytes32"
        }
      ],
      "name": "hashProposal",
      "outputs": [
        {
          "internalType": "uint256",
          "name": "",
          "type": "uint256"
        }
      ],
      "stateMutability": "pure",
      "type": "function"
    },
    {
      "inputs": [],
      "name": "name",
      "outputs": [
        {
          "internalType": "string",
          "name": "",
          "type": "string"
        }
      ],
      "stateMutability": "view",
      "type": "function"
    },
    {
      "inputs": [
        {
          "internalType": "address",
          "name": "",
          "type": "address"
        },
        {
          "internalType": "address",
          "name": "",
          "type": "address"
        },
        {
          "internalType": "uint256[]",
          "name": "",
          "type": "uint256[]"
        },
        {
          "internalType": "uint256[]",
          "name": "",
          "type": "uint256[]"
        },
        {
          "internalType": "bytes",
          "name": "",
          "type": "bytes"
        }
      ],
      "name": "onERC1155BatchReceived",
      "outputs": [
        {
          "internalType": "bytes4",
          "name": "",
          "type": "bytes4"
        }
      ],
      "stateMutability": "nonpayable",
      "type": "function"
    },
    {
      "inputs": [
        {
          "internalType": "address",
          "name": "",
          "type": "address"
        },
        {
          "internalType": "address",
          "name": "",
          "type": "address"
        },
        {
          "internalType": "uint256",
          "name": "",
          "type": "uint256"
        },
        {
          "internalType": "uint256",
          "name": "",
          "type": "uint256"
        },
        {
          "internalType": "bytes",
          "name": "",
          "type": "bytes"
        }
      ],
      "name": "onERC1155Received",
      "outputs": [
        {
          "internalType": "bytes4",
          "name": "",
          "type": "bytes4"
        }
      ],
      "stateMutability": "nonpayable",
      "type": "function"
    },
    {
      "inputs": [
        {
          "internalType": "address",
          "name": "",
          "type": "address"
        },
        {
          "internalType": "address",
          "name": "",
          "type": "address"
        },
        {
          "internalType": "uint256",
          "name": "",
          "type": "uint256"
        },
        {
          "internalType": "bytes",
          "name": "",
          "type": "bytes"
        }
      ],
      "name": "onERC721Received",
      "outputs": [
        {
          "internalType": "bytes4",
          "name": "",
          "type": "bytes4"
        }
      ],
      "stateMutability": "nonpayable",
      "type": "function"
    },
    {
      "inputs": [
        {
          "internalType": "uint256",
          "name": "proposalId",
          "type": "uint256"
        }
      ],
      "name": "proposalDeadline",
      "outputs": [
        {
          "internalType": "uint256",
          "name": "",
          "type": "uint256"
        }
      ],
      "stateMutability": "view",
      "type": "function"
    },
    {
      "inputs": [
        {
          "internalType": "uint256",
          "name": "proposalId",
          "type": "uint256"
        }
      ],
      "name": "proposalEta",
      "outputs": [
        {
          "internalType": "uint256",
          "name": "",
          "type": "uint256"
        }
      ],
      "stateMutability": "view",
      "type": "function"
    },
    {
      "inputs": [
        {
          "internalType": "uint256",
          "name": "proposalId",
          "type": "uint256"
        }
      ],
      "name": "proposalSnapshot",
      "outputs": [
        {
          "internalType": "uint256",
          "name": "",
          "type": "uint256"
        }
      ],
      "stateMutability": "view",
      "type": "function"
    },
    {
      "inputs": [],
      "name": "proposalThreshold",
      "outputs": [
        {
          "internalType": "uint256",
          "name": "",
          "type": "uint256"
        }
      ],
      "stateMutability": "view",
      "type": "function"
    },
    {
      "inputs": [
        {
          "internalType": "uint256",
          "name": "proposalId",
          "type": "uint256"
        }
      ],
      "name": "proposals",
      "outputs": [
        {
          "internalType": "uint256",
          "name": "id",
          "type": "uint256"
        },
        {
          "internalType": "address",
          "name": "proposer",
          "type": "address"
        },
        {
          "internalType": "uint256",
          "name": "eta",
          "type": "uint256"
        },
        {
          "internalType": "uint256",
          "name": "startBlock",
          "type": "uint256"
        },
        {
          "internalType": "uint256",
          "name": "endBlock",
          "type": "uint256"
        },
        {
          "internalType": "uint256",
          "name": "forVotes",
          "type": "uint256"
        },
        {
          "internalType": "uint256",
          "name": "againstVotes",
          "type": "uint256"
        },
        {
          "internalType": "uint256",
          "name": "abstainVotes",
          "type": "uint256"
        },
        {
          "internalType": "bool",
          "name": "canceled",
          "type": "bool"
        },
        {
          "internalType": "bool",
          "name": "executed",
          "type": "bool"
        }
      ],
      "stateMutability": "view",
      "type": "function"
    },
    {
      "inputs": [
        {
          "internalType": "address[]",
          "name": "targets",
          "type": "address[]"
        },
        {
          "internalType": "uint256[]",
          "name": "values",
          "type": "uint256[]"
        },
        {
          "internalType": "bytes[]",
          "name": "calldatas",
          "type": "bytes[]"
        },
        {
          "internalType": "string",
          "name": "description",
          "type": "string"
        }
      ],
      "name": "propose",
      "outputs": [
        {
          "internalType": "uint256",
          "name": "",
          "type": "uint256"
        }
      ],
      "stateMutability": "nonpayable",
      "type": "function"
    },
    {
      "inputs": [
        {
          "internalType": "address[]",
          "name": "targets",
          "type": "address[]"
        },
        {
          "internalType": "uint256[]",
          "name": "values",
          "type": "uint256[]"
        },
        {
          "internalType": "string[]",
          "name": "signatures",
          "type": "string[]"
        },
        {
          "internalType": "bytes[]",
          "name": "calldatas",
          "type": "bytes[]"
        },
        {
          "internalType": "string",
          "name": "description",
          "type": "string"
        }
      ],
      "name": "propose",
      "outputs": [
        {
          "internalType": "uint256",
          "name": "",
          "type": "uint256"
        }
      ],
      "stateMutability": "nonpayable",
      "type": "function"
    },
    {
      "inputs": [
        {
          "internalType": "address[]",
          "name": "targets",
          "type": "address[]"
        },
        {
          "internalType": "uint256[]",
          "name": "values",
          "type": "uint256[]"
        },
        {
          "internalType": "bytes[]",
          "name": "calldatas",
          "type": "bytes[]"
        },
        {
          "internalType": "bytes32",
          "name": "descriptionHash",
          "type": "bytes32"
        }
      ],
      "name": "queue",
      "outputs": [
        {
          "internalType": "uint256",
          "name": "",
          "type": "uint256"
        }
      ],
      "stateMutability": "nonpayable",
      "type": "function"
    },
    {
      "inputs": [
        {
          "internalType": "uint256",
          "name": "proposalId",
          "type": "uint256"
        }
      ],
      "name": "queue",
      "outputs": [],
      "stateMutability": "nonpayable",
      "type": "function"
    },
    {
      "inputs": [
        {
          "internalType": "uint256",
          "name": "blockNumber",
          "type": "uint256"
        }
      ],
      "name": "quorum",
      "outputs": [
        {
          "internalType": "uint256",
          "name": "",
          "type": "uint256"
        }
      ],
      "stateMutability": "view",
      "type": "function"
    },
    {
      "inputs": [],
      "name": "quorumDenominator",
      "outputs": [
        {
          "internalType": "uint256",
          "name": "",
          "type": "uint256"
        }
      ],
      "stateMutability": "view",
      "type": "function"
    },
    {
      "inputs": [],
      "name": "quorumNumerator",
      "outputs": [
        {
          "internalType": "uint256",
          "name": "",
          "type": "uint256"
        }
      ],
      "stateMutability": "view",
      "type": "function"
    },
    {
      "inputs": [],
      "name": "quorumVotes",
      "outputs": [
        {
          "internalType": "uint256",
          "name": "",
          "type": "uint256"
        }
      ],
      "stateMutability": "view",
      "type": "function"
    },
    {
      "inputs": [
        {
          "internalType": "address",
          "name": "target",
          "type": "address"
        },
        {
          "internalType": "uint256",
          "name": "value",
          "type": "uint256"
        },
        {
          "internalType": "bytes",
          "name": "data",
          "type": "bytes"
        }
      ],
      "name": "relay",
      "outputs": [],
      "stateMutability": "nonpayable",
      "type": "function"
    },
    {
      "inputs": [
        {
          "internalType": "uint256",
          "name": "newProposalThreshold",
          "type": "uint256"
        }
      ],
      "name": "setProposalThreshold",
      "outputs": [],
      "stateMutability": "nonpayable",
      "type": "function"
    },
    {
      "inputs": [
        {
          "internalType": "uint256",
          "name": "newVotingDelay",
          "type": "uint256"
        }
      ],
      "name": "setVotingDelay",
      "outputs": [],
      "stateMutability": "nonpayable",
      "type": "function"
    },
    {
      "inputs": [
        {
          "internalType": "uint256",
          "name": "newVotingPeriod",
          "type": "uint256"
        }
      ],
      "name": "setVotingPeriod",
      "outputs": [],
      "stateMutability": "nonpayable",
      "type": "function"
    },
    {
      "inputs": [
        {
          "internalType": "uint256",
          "name": "proposalId",
          "type": "uint256"
        }
      ],
      "name": "state",
      "outputs": [
        {
          "internalType": "enum IGovernor.ProposalState",
          "name": "",
          "type": "uint8"
        }
      ],
      "stateMutability": "view",
      "type": "function"
    },
    {
      "inputs": [
        {
          "internalType": "bytes4",
          "name": "interfaceId",
          "type": "bytes4"
        }
      ],
      "name": "supportsInterface",
      "outputs": [
        {
          "internalType": "bool",
          "name": "",
          "type": "bool"
        }
      ],
      "stateMutability": "view",
      "type": "function"
    },
    {
      "inputs": [],
      "name": "timelock",
      "outputs": [
        {
          "internalType": "address",
          "name": "",
          "type": "address"
        }
      ],
      "stateMutability": "view",
      "type": "function"
    },
    {
      "inputs": [],
      "name": "token",
      "outputs": [
        {
          "internalType": "contract IVotes",
          "name": "",
          "type": "address"
        }
      ],
      "stateMutability": "view",
      "type": "function"
    },
    {
      "inputs": [
        {
          "internalType": "uint256",
          "name": "newQuorumNumerator",
          "type": "uint256"
        }
      ],
      "name": "updateQuorumNumerator",
      "outputs": [],
      "stateMutability": "nonpayable",
      "type": "function"
    },
    {
      "inputs": [
        {
          "internalType": "contract TimelockController",
          "name": "newTimelock",
          "type": "address"
        }
      ],
      "name": "updateTimelock",
      "outputs": [],
      "stateMutability": "nonpayable",
      "type": "function"
    },
    {
      "inputs": [],
      "name": "version",
      "outputs": [
        {
          "internalType": "string",
          "name": "",
          "type": "string"
        }
      ],
      "stateMutability": "view",
      "type": "function"
    },
    {
      "inputs": [],
      "name": "votingDelay",
      "outputs": [
        {
          "internalType": "uint256",
          "name": "",
          "type": "uint256"
        }
      ],
      "stateMutability": "view",
      "type": "function"
    },
    {
      "inputs": [],
      "name": "votingPeriod",
      "outputs": [
        {
          "internalType": "uint256",
          "name": "",
          "type": "uint256"
        }
      ],
      "stateMutability": "view",
      "type": "function"
    },
    {
      "stateMutability": "payable",
      "type": "receive"
    }
  ],
  "bytecode": "0x6101606040523480156200001257600080fd5b50604051620052f1380380620052f18339810160408190526200003591620004b0565b836004868585856040518060400160405280601081526020016f11dbdd995c9b9bdc90dbdb9d1c9858dd60821b81525080620000766200017a60201b60201c565b815160208084019190912082518383012060e08290526101008190524660a0818152604080517f8b73c3c69bb8fe3d512ecc4cf759cc79239f7b179b0ffacaa9a75d522b39400f81880181905281830187905260608201869052608082019490945230818401528151808203909301835260c00190528051940193909320919290916080523060601b60c05261012052505082516200011f9250600091506020840190620003f1565b506200012d90508362000195565b6200013882620001d6565b62000143816200027d565b50505060601b6001600160601b031916610140526200016281620002be565b506200016e8162000388565b50505050505062000545565b6040805180820190915260018152603160f81b602082015290565b60045460408051918252602082018390527fc565b045403dc03c2eea82b81a0465edad9e2e7fc4d97e11421c209da93d7a93910160405180910390a1600455565b600081116200023c5760405162461bcd60e51b815260206004820152602760248201527f476f7665726e6f7253657474696e67733a20766f74696e6720706572696f6420604482015266746f6f206c6f7760c81b60648201526084015b60405180910390fd5b60055460408051918252602082018390527f7e3f7f0708a84de9203036abaa450dccc85ad5ff52f78c170f3edb55cf5e8828910160405180910390a1600555565b60065460408051918252602082018390527fccb45da8d5717e6c4544694297c4ba5cf151d455c9bb0ed4fc7a38411bc05461910160405180910390a1600655565b6064811115620003435760405162461bcd60e51b815260206004820152604360248201527f476f7665726e6f72566f74657351756f72756d4672616374696f6e3a2071756f60448201527f72756d4e756d657261746f72206f7665722071756f72756d44656e6f6d696e616064820152623a37b960e91b608482015260a40162000233565b600880549082905560408051828152602081018490527f0553476bf02ef2726e8ce5ced78d63e26e602e4a2257b1f559418e24b4633997910160405180910390a15050565b600954604080516001600160a01b03928316815291831660208301527f08f74ea46ef7894f65eabfb5e6e695de773a000b47c529ab559178069b226401910160405180910390a1600980546001600160a01b0319166001600160a01b0392909216919091179055565b828054620003ff9062000508565b90600052602060002090601f0160209004810192826200042357600085556200046e565b82601f106200043e57805160ff19168380011785556200046e565b828001600101855582156200046e579182015b828111156200046e57825182559160200191906001019062000451565b506200047c92915062000480565b5090565b5b808211156200047c576000815560010162000481565b6001600160a01b0381168114620004ad57600080fd5b50565b600080600080600060a08688031215620004c957600080fd5b8551620004d68162000497565b6020870151909550620004e98162000497565b6040870151606088015160809098015196999198509695945092505050565b600181811c908216806200051d57607f821691505b602082108114156200053f57634e487b7160e01b600052602260045260246000fd5b50919050565b60805160a05160c05160601c60e05161010051610120516101405160601c614d3d620005b460003960008181610a28015281816128ca0152612bb201526000612d3d01526000612d8c01526000612d6701526000612cc001526000612cea01526000612d140152614d3d6000f3fe60806040526004361061028c5760003560e01c80637d5e81e21161015a578063da95691a116100c1578063eb9019d41161007a578063eb9019d41461098a578063ece40cc1146109aa578063f23a6e61146109ca578063f8ce560a146109f6578063fc0c546a14610a16578063fe0d94c114610a4a57600080fd5b8063da95691a146107e6578063dd4e2ba514610806578063ddf0b0091461084c578063deaaa7cc1461086c578063e23a9a52146108a0578063ea0217cf1461096a57600080fd5b8063b58131b011610113578063b58131b014610713578063bc197c8114610728578063c01f9e3714610754578063c28bc2fa14610774578063c59057e414610794578063d33219b4146107b457600080fd5b80637d5e81e21461066a57806397c3d3341461068a5780639a802a6d1461069e578063a7713a70146106be578063a890c910146106d3578063ab58fb8e146106f357600080fd5b80632fe3e261116101fe57806343859632116101b7578063438596321461057657806354fd4d50146105c057806356781388146105ea5780635f398a141461060a57806370b0f6601461062a5780637b3c71d31461064a57600080fd5b80632fe3e26114610490578063328dd982146104c45780633932abb1146104f45780633bccf4fd146105095780633e4f49e61461052957806340e58ee51461055657600080fd5b806306fdde031161025057806306fdde03146103c2578063150b7a02146103e4578063160cbed71461042857806324bc1a64146104485780632656227d1461045d5780632d63f6931461047057600080fd5b8063013cf08b146102b457806301ffc9a71461032f57806302a251a31461035f578063034201811461038257806306f3f9e6146103a257600080fd5b366102af573061029a610a5d565b6001600160a01b0316146102ad57600080fd5b005b600080fd5b3480156102c057600080fd5b506102d46102cf366004613d0d565b610a76565b604080519a8b526001600160a01b0390991660208b0152978901969096526060880194909452608087019290925260a086015260c085015260e084015215156101008301521515610120820152610140015b60405180910390f35b34801561033b57600080fd5b5061034f61034a366004613d26565b610b21565b6040519015158152602001610326565b34801561036b57600080fd5b50610374610b32565b604051908152602001610326565b34801561038e57600080fd5b5061037461039d366004613e63565b610b3d565b3480156103ae57600080fd5b506102ad6103bd366004613d0d565b610c35565b3480156103ce57600080fd5b506103d7610ccd565b6040516103269190613f65565b3480156103f057600080fd5b5061040f6103ff366004613f8d565b630a85bd0160e11b949350505050565b6040516001600160e01b03199091168152602001610326565b34801561043457600080fd5b50610374610443366004614169565b610d5f565b34801561045457600080fd5b50610374610f7e565b61037461046b366004614169565b610f8e565b34801561047c57600080fd5b5061037461048b366004613d0d565b61107b565b34801561049c57600080fd5b506103747fb3b3f3b703cd84ce352197dcff232b1b5d3cfb2025ce47cf04742d0651f1af8881565b3480156104d057600080fd5b506104e46104df366004613d0d565b6110b2565b60405161032694939291906142be565b34801561050057600080fd5b50610374611343565b34801561051557600080fd5b5061037461052436600461430b565b61134e565b34801561053557600080fd5b50610549610544366004613d0d565b6113c4565b604051610326919061436f565b34801561056257600080fd5b506102ad610571366004613d0d565b6113cf565b34801561058257600080fd5b5061034f610591366004614397565b60008281526007602090815260408083206001600160a01b038516845260080190915290205460ff1692915050565b3480156105cc57600080fd5b506040805180820190915260018152603160f81b60208201526103d7565b3480156105f657600080fd5b506103746106053660046143c7565b6116e7565b34801561061657600080fd5b506103746106253660046143f3565b611710565b34801561063657600080fd5b506102ad610645366004613d0d565b61175a565b34801561065657600080fd5b50610374610665366004614476565b6117e6565b34801561067657600080fd5b506103746106853660046144cf565b611838565b34801561069657600080fd5b506064610374565b3480156106aa57600080fd5b506103746106b936600461456f565b61184f565b3480156106ca57600080fd5b50600854610374565b3480156106df57600080fd5b506102ad6106ee3660046145c7565b611866565b3480156106ff57600080fd5b5061037461070e366004613d0d565b6118f2565b34801561071f57600080fd5b5061037461199b565b34801561073457600080fd5b5061040f6107433660046145e4565b63bc197c8160e01b95945050505050565b34801561076057600080fd5b5061037461076f366004613d0d565b6119a6565b34801561078057600080fd5b506102ad61078f366004614677565b6119d5565b3480156107a057600080fd5b506103746107af366004614169565b611aa1565b3480156107c057600080fd5b506009546001600160a01b03165b6040516001600160a01b039091168152602001610326565b3480156107f257600080fd5b50610374610801366004614739565b611adb565b34801561081257600080fd5b5060408051808201909152601a81527f737570706f72743d627261766f2671756f72756d3d627261766f00000000000060208201526103d7565b34801561085857600080fd5b506102ad610867366004613d0d565b611b00565b34801561087857600080fd5b506103747f150214d74d59b7d1e90c73fc22ef3d991dd0a76b046543d4d80ab92d2a50328f81565b3480156108ac57600080fd5b5061093a6108bb366004614397565b60408051606081018252600080825260208201819052918101919091525060009182526007602090815260408084206001600160a01b0393909316845260089092018152918190208151606081018352905460ff8082161515835261010082041693820193909352620100009092046001600160601b03169082015290565b6040805182511515815260208084015160ff1690820152918101516001600160601b031690820152606001610326565b34801561097657600080fd5b506102ad610985366004613d0d565b611d6e565b34801561099657600080fd5b506103746109a53660046147da565b611dfa565b3480156109b657600080fd5b506102ad6109c5366004613d0d565b611e06565b3480156109d657600080fd5b5061040f6109e5366004614806565b63f23a6e6160e01b95945050505050565b348015610a0257600080fd5b50610374610a11366004613d0d565b611e92565b348015610a2257600080fd5b506107ce7f000000000000000000000000000000000000000000000000000000000000000081565b6102ad610a58366004613d0d565b611e9d565b6000610a716009546001600160a01b031690565b905090565b8060008080808080808080610a8a8a6118f2565b9750610a958b61107b565b9650610aa08b6119a6565b60008c81526007602081905260408220805460058201546006830154938301546001600160a01b039092169e50949a50939850909650919450610ae28d6113c4565b90506002816007811115610af857610af8614359565b1493506007816007811115610b0f57610b0f614359565b14925050509193959799509193959799565b6000610b2c8261210b565b92915050565b6000610a7160055490565b600080610be1610bd97fb3b3f3b703cd84ce352197dcff232b1b5d3cfb2025ce47cf04742d0651f1af888c8c8c8c604051610b7992919061486e565b60405180910390208b80519060200120604051602001610bbe959493929190948552602085019390935260ff9190911660408401526060830152608082015260a00190565b60405160208183030381529060405280519060200120612130565b86868661217e565b9050610c278a828b8b8b8080601f0160208091040260200160405190810160405280939291908181526020018383808284376000920191909152508d925061219c915050565b9a9950505050505050505050565b610c3d610a5d565b6001600160a01b0316336001600160a01b031614610c765760405162461bcd60e51b8152600401610c6d9061487e565b60405180910390fd5b30610c7f610a5d565b6001600160a01b031614610cc15760008036604051610c9f92919061486e565b604051809103902090505b80610cb560026122fe565b14610cbf57610caa565b505b610cca8161237d565b50565b606060008054610cdc906148b5565b80601f0160208091040260200160405190810160405280929190818152602001828054610d08906148b5565b8015610d555780601f10610d2a57610100808354040283529160200191610d55565b820191906000526020600020905b815481529060010190602001808311610d3857829003601f168201915b5050505050905090565b600080610d6e86868686611aa1565b90506004610d7b826113c4565b6007811115610d8c57610d8c614359565b14610da95760405162461bcd60e51b8152600401610c6d906148f0565b6009546040805163793d064960e11b815290516000926001600160a01b03169163f27a0c92916004808301926020929190829003018186803b158015610dee57600080fd5b505afa158015610e02573d6000803e3d6000fd5b505050506040513d601f19601f82011682018060405250810190610e269190614931565b60095460405163b1c5f42760e01b81529192506001600160a01b03169063b1c5f42790610e60908a908a908a906000908b9060040161494a565b60206040518083038186803b158015610e7857600080fd5b505afa158015610e8c573d6000803e3d6000fd5b505050506040513d601f19601f82011682018060405250810190610eb09190614931565b6000838152600a60205260408082209290925560095491516308f2a0bb60e41b81526001600160a01b0390921691638f2a0bb091610efb918b918b918b91908b908990600401614998565b600060405180830381600087803b158015610f1557600080fd5b505af1158015610f29573d6000803e3d6000fd5b505050507f9a2e42fd6722813d69113e7d0079d3d940171428df7373df9c7f7617cfda2892828242610f5b9190614a06565b604080519283526020830191909152015b60405180910390a15095945050505050565b6000610a71610a11600143614a1e565b600080610f9d86868686611aa1565b90506000610faa826113c4565b90506004816007811115610fc057610fc0614359565b1480610fdd57506005816007811115610fdb57610fdb614359565b145b610ff95760405162461bcd60e51b8152600401610c6d906148f0565b600082815260016020818152604092839020600201805460ff191690921790915590518381527f712ae1383f79ac853f8d882153778e0260ef8f03b504e2866e0593e04d2b291f910160405180910390a16110578288888888612445565b61106482888888886124e7565b61107182888888886124f4565b5095945050505050565b60008181526001602090815260408083208151928301909152546001600160401b0316908190525b6001600160401b031692915050565b6060806060806000600760008781526020019081526020016000209050806001018160020182600301836004018380548060200260200160405190810160405280929190818152602001828054801561113457602002820191906000526020600020905b81546001600160a01b03168152600190910190602001808311611116575b505050505093508280548060200260200160405190810160405280929190818152602001828054801561118657602002820191906000526020600020905b815481526020019060010190808311611172575b5050505050925081805480602002602001604051908101604052809291908181526020016000905b8282101561125a5783829060005260206000200180546111cd906148b5565b80601f01602080910402602001604051908101604052809291908181526020018280546111f9906148b5565b80156112465780601f1061121b57610100808354040283529160200191611246565b820191906000526020600020905b81548152906001019060200180831161122957829003601f168201915b5050505050815260200190600101906111ae565b50505050915080805480602002602001604051908101604052809291908181526020016000905b8282101561132d5783829060005260206000200180546112a0906148b5565b80601f01602080910402602001604051908101604052809291908181526020018280546112cc906148b5565b80156113195780601f106112ee57610100808354040283529160200191611319565b820191906000526020600020905b8154815290600101906020018083116112fc57829003601f168201915b505050505081526020019060010190611281565b5050505090509450945094509450509193509193565b6000610a7160045490565b604080517f150214d74d59b7d1e90c73fc22ef3d991dd0a76b046543d4d80ab92d2a50328f602082015290810186905260ff85166060820152600090819061139c90610bd990608001610bbe565b90506113b98782886040518060200160405280600081525061252d565b979650505050505050565b6000610b2c82612550565b600081815260076020526040902080546001600160a01b0316336001600160a01b0316148061141d575061140161199b565b815461141b906001600160a01b03166109a5600143614a1e565b105b6114795760405162461bcd60e51b815260206004820152602760248201527f476f7665726e6f72427261766f3a2070726f706f7365722061626f76652074686044820152661c995cda1bdb1960ca1b6064820152608401610c6d565b6116e2816001018054806020026020016040519081016040528092919081815260200182805480156114d457602002820191906000526020600020905b81546001600160a01b031681526001909101906020018083116114b6575b50505050508260020180548060200260200160405190810160405280929190818152602001828054801561152757602002820191906000526020600020905b815481526020019060010190808311611513575b50505050506116d884600301805480602002602001604051908101604052809291908181526020016000905b828210156115ff578382906000526020600020018054611572906148b5565b80601f016020809104026020016040519081016040528092919081815260200182805461159e906148b5565b80156115eb5780601f106115c0576101008083540402835291602001916115eb565b820191906000526020600020905b8154815290600101906020018083116115ce57829003601f168201915b505050505081526020019060010190611553565b50505060048701805460408051602080840282018101909252828152935060009084015b828210156116cf578382906000526020600020018054611642906148b5565b80601f016020809104026020016040519081016040528092919081815260200182805461166e906148b5565b80156116bb5780601f10611690576101008083540402835291602001916116bb565b820191906000526020600020905b81548152906001019060200180831161169e57829003601f168201915b505050505081526020019060010190611623565b505050506126b8565b84600901546127ea565b505050565b6000803390506117088482856040518060200160405280600081525061252d565b949350505050565b6000803390506113b987828888888080601f0160208091040260200160405190810160405280939291908181526020018383808284376000920191909152508a925061219c915050565b611762610a5d565b6001600160a01b0316336001600160a01b0316146117925760405162461bcd60e51b8152600401610c6d9061487e565b3061179b610a5d565b6001600160a01b0316146117dd57600080366040516117bb92919061486e565b604051809103902090505b806117d160026122fe565b146117db576117c6565b505b610cca816127f8565b60008033905061182e86828787878080601f01602080910402602001604051908101604052809392919081815260200183838082843760009201919091525061252d92505050565b9695505050505050565b600061184685858585612839565b95945050505050565b600061185c8484846128a1565b90505b9392505050565b61186e610a5d565b6001600160a01b0316336001600160a01b03161461189e5760405162461bcd60e51b8152600401610c6d9061487e565b306118a7610a5d565b6001600160a01b0316146118e957600080366040516118c792919061486e565b604051809103902090505b806118dd60026122fe565b146118e7576118d2565b505b610cca81612946565b6009546000828152600a602052604080822054905163d45c443560e01b81526004810191909152909182916001600160a01b039091169063d45c44359060240160206040518083038186803b15801561194a57600080fd5b505afa15801561195e573d6000803e3d6000fd5b505050506040513d601f19601f820116820180604052508101906119829190614931565b905080600114611992578061185f565b60009392505050565b6000610a7160065490565b60008181526001602081815260408084208151928301909152909101546001600160401b0316908190526110a3565b6119dd610a5d565b6001600160a01b0316336001600160a01b031614611a0d5760405162461bcd60e51b8152600401610c6d9061487e565b30611a16610a5d565b6001600160a01b031614611a585760008036604051611a3692919061486e565b604051809103902090505b80611a4c60026122fe565b14611a5657611a41565b505b611a9a8483838080601f0160208091040260200160405190810160405280939291908181526020018383808284376000920191909152508892506129af915050565b5050505050565b600084848484604051602001611aba9493929190614a35565b60408051601f19818403018152919052805160209091012095945050505050565b6000611aeb3387878787876129d5565b61182e8686611afa87876126b8565b85611838565b60008181526007602090815260409182902060018101805484518185028101850190955280855291936116e293909290830182828015611b6957602002820191906000526020600020905b81546001600160a01b03168152600190910190602001808311611b4b575b505050505082600201805480602002602001604051908101604052809291908181526020018280548015611bbc57602002820191906000526020600020905b815481526020019060010190808311611ba8575b5050505050611d6484600301805480602002602001604051908101604052809291908181526020016000905b82821015611c94578382906000526020600020018054611c07906148b5565b80601f0160208091040260200160405190810160405280929190818152602001828054611c33906148b5565b8015611c805780601f10611c5557610100808354040283529160200191611c80565b820191906000526020600020905b815481529060010190602001808311611c6357829003601f168201915b505050505081526020019060010190611be8565b50505060048701805460408051602080840282018101909252828152935060009084015b828210156116cf578382906000526020600020018054611cd7906148b5565b80601f0160208091040260200160405190810160405280929190818152602001828054611d03906148b5565b8015611d505780601f10611d2557610100808354040283529160200191611d50565b820191906000526020600020905b815481529060010190602001808311611d3357829003601f168201915b505050505081526020019060010190611cb8565b8460090154610d5f565b611d76610a5d565b6001600160a01b0316336001600160a01b031614611da65760405162461bcd60e51b8152600401610c6d9061487e565b30611daf610a5d565b6001600160a01b031614611df15760008036604051611dcf92919061486e565b604051809103902090505b80611de560026122fe565b14611def57611dda565b505b610cca81612a92565b600061185f8383612b33565b611e0e610a5d565b6001600160a01b0316336001600160a01b031614611e3e5760405162461bcd60e51b8152600401610c6d9061487e565b30611e47610a5d565b6001600160a01b031614611e895760008036604051611e6792919061486e565b604051809103902090505b80611e7d60026122fe565b14611e8757611e72565b505b610cca81612b54565b6000610b2c82612b95565b60008181526007602090815260409182902060018101805484518185028101850190955280855291936116e293909290830182828015611f0657602002820191906000526020600020905b81546001600160a01b03168152600190910190602001808311611ee8575b505050505082600201805480602002602001604051908101604052809291908181526020018280548015611f5957602002820191906000526020600020905b815481526020019060010190808311611f45575b505050505061210184600301805480602002602001604051908101604052809291908181526020016000905b82821015612031578382906000526020600020018054611fa4906148b5565b80601f0160208091040260200160405190810160405280929190818152602001828054611fd0906148b5565b801561201d5780601f10611ff25761010080835404028352916020019161201d565b820191906000526020600020905b81548152906001019060200180831161200057829003601f168201915b505050505081526020019060010190611f85565b50505060048701805460408051602080840282018101909252828152935060009084015b828210156116cf578382906000526020600020018054612074906148b5565b80601f01602080910402602001604051908101604052809291908181526020018280546120a0906148b5565b80156120ed5780601f106120c2576101008083540402835291602001916120ed565b820191906000526020600020905b8154815290600101906020018083116120d057829003601f168201915b505050505081526020019060010190612055565b8460090154610f8e565b60006001600160e01b03198216636e665ced60e01b1480610b2c5750610b2c82612c48565b6000610b2c61213d612cb3565b8360405161190160f01b6020820152602281018390526042810182905260009060620160405160208183030381529060405280519060200120905092915050565b600080600061218f87878787612dda565b9150915061107181612ec7565b60008581526001602081905260408220906121b6886113c4565b60078111156121c7576121c7614359565b146122205760405162461bcd60e51b815260206004820152602360248201527f476f7665726e6f723a20766f7465206e6f742063757272656e746c792061637460448201526269766560e81b6064820152608401610c6d565b604080516020810190915281546001600160401b031690819052600090612249908890866128a1565b90506122588888888488613082565b83516122aa57866001600160a01b03167fb8e138887d0aa13bab447e82de9d5c1777041ecd21ca36ba824ff1e6c07ddda48988848960405161229d9493929190614a80565b60405180910390a26113b9565b866001600160a01b03167fe2babfbac5889a709b63bb7f598b324e08bc5a4fb9ec647fb3cbc9ec07eb871289888489896040516122eb959493929190614aa8565b60405180910390a2979650505050505050565b60006123198254600f81810b600160801b909204900b131590565b1561233757604051631ed9509560e11b815260040160405180910390fd5b508054600f0b6000818152600180840160205260408220805492905583546fffffffffffffffffffffffffffffffff191692016001600160801b03169190911790915590565b60648111156124005760405162461bcd60e51b815260206004820152604360248201527f476f7665726e6f72566f74657351756f72756d4672616374696f6e3a2071756f60448201527f72756d4e756d657261746f72206f7665722071756f72756d44656e6f6d696e616064820152623a37b960e91b608482015260a401610c6d565b600880549082905560408051828152602081018490527f0553476bf02ef2726e8ce5ced78d63e26e602e4a2257b1f559418e24b4633997910160405180910390a15050565b3061244e610a5d565b6001600160a01b031614611a9a5760005b84518110156124df57306001600160a01b031685828151811061248457612484614aee565b60200260200101516001600160a01b031614156124cf576124cf8382815181106124b0576124b0614aee565b602002602001015180519060200120600261322890919063ffffffff16565b6124d881614b04565b905061245f565b505050505050565b611a9a8585858585613264565b306124fd610a5d565b6001600160a01b031614611a9a57600254600f81810b600160801b909204900b1315611a9a576000600255611a9a565b60006118468585858561254b60408051602081019091526000815290565b61219c565b60008061255c836132d8565b9050600481600781111561257257612572614359565b1461257d5792915050565b6000838152600a602052604090205480612598575092915050565b600954604051632ab0f52960e01b8152600481018390526001600160a01b0390911690632ab0f5299060240160206040518083038186803b1580156125dc57600080fd5b505afa1580156125f0573d6000803e3d6000fd5b505050506040513d601f19601f820116820180604052508101906126149190614b1f565b15612623575060079392505050565b600954604051632c258a9f60e11b8152600481018390526001600160a01b039091169063584b153e9060240160206040518083038186803b15801561266757600080fd5b505afa15801561267b573d6000803e3d6000fd5b505050506040513d601f19601f8201168201806040525081019061269f9190614b1f565b156126ae575060059392505050565b5060029392505050565b6060600082516001600160401b038111156126d5576126d5613dae565b60405190808252806020026020018201604052801561270857816020015b60608152602001906001900390816126f35790505b50905060005b84518110156127e25784818151811061272957612729614aee565b6020026020010151516000146127995784818151811061274b5761274b614aee565b60200260200101518051906020012084828151811061276c5761276c614aee565b6020026020010151604051602001612785929190614b41565b6040516020818303038152906040526127b4565b8381815181106127ab576127ab614aee565b60200260200101515b8282815181106127c6576127c6614aee565b6020026020010181905250806127db90614b04565b905061270e565b509392505050565b6000611846858585856133e7565b60045460408051918252602082018390527fc565b045403dc03c2eea82b81a0465edad9e2e7fc4d97e11421c209da93d7a93910160405180910390a1600455565b600061289533868686516001600160401b0381111561285a5761285a613dae565b60405190808252806020026020018201604052801561288d57816020015b60608152602001906001900390816128785790505b5087876129d5565b61184685858585613499565b604051630748d63560e31b81526001600160a01b038481166004830152602482018490526000917f000000000000000000000000000000000000000000000000000000000000000090911690633a46b1a89060440160206040518083038186803b15801561290e57600080fd5b505afa158015612922573d6000803e3d6000fd5b505050506040513d601f19601f8201168201806040525081019061185c9190614931565b600954604080516001600160a01b03928316815291831660208301527f08f74ea46ef7894f65eabfb5e6e695de773a000b47c529ab559178069b226401910160405180910390a1600980546001600160a01b0319166001600160a01b0392909216919091179055565b606061185c848484604051806060016040528060298152602001614cdf6029913961375c565b8051602082012060006129f387876129ed88886126b8565b85611aa1565b6000818152600760205260409020600981015491925090612a875780546001600160a01b0319166001600160a01b038a161781558751612a3c90600183019060208b0190613ac3565b508651612a5290600283019060208a0190613b24565b508551612a689060038301906020890190613b5f565b508451612a7e9060048301906020880190613bb8565b50600981018390555b505050505050505050565b60008111612af25760405162461bcd60e51b815260206004820152602760248201527f476f7665726e6f7253657474696e67733a20766f74696e6720706572696f6420604482015266746f6f206c6f7760c81b6064820152608401610c6d565b60055460408051918252602082018390527f7e3f7f0708a84de9203036abaa450dccc85ad5ff52f78c170f3edb55cf5e8828910160405180910390a1600555565b600061185f8383612b4f60408051602081019091526000815290565b6128a1565b60065460408051918252602082018390527fccb45da8d5717e6c4544694297c4ba5cf151d455c9bb0ed4fc7a38411bc05461910160405180910390a1600655565b60006064600854604051632394e7a360e21b8152600481018590527f00000000000000000000000000000000000000000000000000000000000000006001600160a01b031690638e539e8c9060240160206040518083038186803b158015612bfc57600080fd5b505afa158015612c10573d6000803e3d6000fd5b505050506040513d601f19601f82011682018060405250810190612c349190614931565b612c3e9190614b72565b610b2c9190614b91565b60006001600160e01b0319821663bf26d89760e01b1480612c7957506001600160e01b031982166379dd796f60e01b145b80612c9457506001600160e01b03198216630271189760e51b145b80610b2c57506301ffc9a760e01b6001600160e01b0319831614610b2c565b6000306001600160a01b037f000000000000000000000000000000000000000000000000000000000000000016148015612d0c57507f000000000000000000000000000000000000000000000000000000000000000046145b15612d3657507f000000000000000000000000000000000000000000000000000000000000000090565b50604080517f00000000000000000000000000000000000000000000000000000000000000006020808301919091527f0000000000000000000000000000000000000000000000000000000000000000828401527f000000000000000000000000000000000000000000000000000000000000000060608301524660808301523060a0808401919091528351808403909101815260c0909201909252805191012090565b6000807f7fffffffffffffffffffffffffffffff5d576e7357a4501ddfe92f46681b20a0831115612e115750600090506003612ebe565b8460ff16601b14158015612e2957508460ff16601c14155b15612e3a5750600090506004612ebe565b6040805160008082526020820180845289905260ff881692820192909252606081018690526080810185905260019060a0016020604051602081039080840390855afa158015612e8e573d6000803e3d6000fd5b5050604051601f1901519150506001600160a01b038116612eb757600060019250925050612ebe565b9150600090505b94509492505050565b6000816004811115612edb57612edb614359565b1415612ee45750565b6001816004811115612ef857612ef8614359565b1415612f465760405162461bcd60e51b815260206004820152601860248201527f45434453413a20696e76616c6964207369676e617475726500000000000000006044820152606401610c6d565b6002816004811115612f5a57612f5a614359565b1415612fa85760405162461bcd60e51b815260206004820152601f60248201527f45434453413a20696e76616c6964207369676e6174757265206c656e677468006044820152606401610c6d565b6003816004811115612fbc57612fbc614359565b14156130155760405162461bcd60e51b815260206004820152602260248201527f45434453413a20696e76616c6964207369676e6174757265202773272076616c604482015261756560f01b6064820152608401610c6d565b600481600481111561302957613029614359565b1415610cca5760405162461bcd60e51b815260206004820152602260248201527f45434453413a20696e76616c6964207369676e6174757265202776272076616c604482015261756560f01b6064820152608401610c6d565b60008581526007602090815260408083206001600160a01b038816845260088101909252909120805460ff16156131115760405162461bcd60e51b815260206004820152602d60248201527f476f7665726e6f72436f6d7061746962696c697479427261766f3a20766f746560448201526c08185b1c9958591e4818d85cdd609a1b6064820152608401610c6d565b805460ff86166101000261ffff1990911617600117815561313184613882565b81546001600160601b039190911662010000026dffffffffffffffffffffffff00001990911617815560ff851661318157838260060160008282546131769190614a06565b9091555061321f9050565b60ff8516600114156131a157838260050160008282546131769190614a06565b60ff8516600214156131c157838260070160008282546131769190614a06565b60405162461bcd60e51b815260206004820152602d60248201527f476f7665726e6f72436f6d7061746962696c697479427261766f3a20696e766160448201526c6c696420766f7465207479706560981b6064820152608401610c6d565b50505050505050565b8154600160801b90819004600f0b6000818152600180860160205260409091209390935583546001600160801b03908116939091011602179055565b60095460405163e38335e560e01b81526001600160a01b039091169063e38335e590349061329f90889088908890600090899060040161494a565b6000604051808303818588803b1580156132b857600080fd5b505af11580156132cc573d6000803e3d6000fd5b50505050505050505050565b6000818152600160205260408120600281015460ff16156132fc5750600792915050565b6002810154610100900460ff16156133175750600292915050565b60006133228461107b565b9050806133715760405162461bcd60e51b815260206004820152601d60248201527f476f7665726e6f723a20756e6b6e6f776e2070726f706f73616c2069640000006044820152606401610c6d565b438110613382575060009392505050565b600061338d856119a6565b90504381106133a157506001949350505050565b6133aa856138ee565b80156133cc575060008581526007602052604090206006810154600590910154115b156133dc57506004949350505050565b506003949350505050565b6000806133f686868686613916565b6000818152600a602052604090205490915015611846576009546000828152600a60205260409081902054905163c4d252f560e01b81526001600160a01b039092169163c4d252f59161344f9160040190815260200190565b600060405180830381600087803b15801561346957600080fd5b505af115801561347d573d6000803e3d6000fd5b5050506000828152600a60205260408120555095945050505050565b60006134a361199b565b6134b2336109a5600143614a1e565b101561351a5760405162461bcd60e51b815260206004820152603160248201527f476f7665726e6f723a2070726f706f73657220766f7465732062656c6f7720706044820152701c9bdc1bdcd85b081d1a1c995cda1bdb19607a1b6064820152608401610c6d565b600061352f8686868680519060200120611aa1565b905084518651146135525760405162461bcd60e51b8152600401610c6d90614bb3565b83518651146135735760405162461bcd60e51b8152600401610c6d90614bb3565b60008651116135c45760405162461bcd60e51b815260206004820152601860248201527f476f7665726e6f723a20656d7074792070726f706f73616c00000000000000006044820152606401610c6d565b600081815260016020908152604091829020825191820190925281546001600160401b031690819052156136445760405162461bcd60e51b815260206004820152602160248201527f476f7665726e6f723a2070726f706f73616c20616c72656164792065786973746044820152607360f81b6064820152608401610c6d565b6000613656613651611343565b613a22565b61365f43613a22565b6136699190614bf4565b90506000613678613651610b32565b6136829083614bf4565b835467ffffffffffffffff19166001600160401b038416178455905060018301805467ffffffffffffffff19166001600160401b0383161790557f7d84a6263ae0d98d3329bd7b46bb4e8d6f98cd35a7adb45c274c8b7fd5ebd5e084338b8b8d516001600160401b038111156136fa576136fa613dae565b60405190808252806020026020018201604052801561372d57816020015b60608152602001906001900390816137185790505b508c88888e60405161374799989796959493929190614c1f565b60405180910390a15091979650505050505050565b6060824710156137bd5760405162461bcd60e51b815260206004820152602660248201527f416464726573733a20696e73756666696369656e742062616c616e636520666f6044820152651c8818d85b1b60d21b6064820152608401610c6d565b6001600160a01b0385163b6138145760405162461bcd60e51b815260206004820152601d60248201527f416464726573733a2063616c6c20746f206e6f6e2d636f6e74726163740000006044820152606401610c6d565b600080866001600160a01b031685876040516138309190614cc2565b60006040518083038185875af1925050503d806000811461386d576040519150601f19603f3d011682016040523d82523d6000602084013e613872565b606091505b50915091506113b9828286613a8a565b60006001600160601b038211156138ea5760405162461bcd60e51b815260206004820152602660248201527f53616665436173743a2076616c756520646f65736e27742066697420696e203960448201526536206269747360d01b6064820152608401610c6d565b5090565b6000818152600760205260408120600581015461390d610a118561107b565b11159392505050565b60008061392586868686611aa1565b90506000613932826113c4565b9050600281600781111561394857613948614359565b141580156139685750600681600781111561396557613965614359565b14155b80156139865750600781600781111561398357613983614359565b14155b6139d25760405162461bcd60e51b815260206004820152601d60248201527f476f7665726e6f723a2070726f706f73616c206e6f74206163746976650000006044820152606401610c6d565b60008281526001602052604090819020600201805461ff001916610100179055517f789cf55be980739dad1d0699b93b58e806b51c9d96619bfa8fe0a28abaa7b30c90610f6c9084815260200190565b60006001600160401b038211156138ea5760405162461bcd60e51b815260206004820152602660248201527f53616665436173743a2076616c756520646f65736e27742066697420696e203660448201526534206269747360d01b6064820152608401610c6d565b60608315613a9957508161185f565b825115613aa95782518084602001fd5b8160405162461bcd60e51b8152600401610c6d9190613f65565b828054828255906000526020600020908101928215613b18579160200282015b82811115613b1857825182546001600160a01b0319166001600160a01b03909116178255602090920191600190910190613ae3565b506138ea929150613c11565b828054828255906000526020600020908101928215613b18579160200282015b82811115613b18578251825591602001919060010190613b44565b828054828255906000526020600020908101928215613bac579160200282015b82811115613bac5782518051613b9c918491602090910190613c26565b5091602001919060010190613b7f565b506138ea929150613c99565b828054828255906000526020600020908101928215613c05579160200282015b82811115613c055782518051613bf5918491602090910190613c26565b5091602001919060010190613bd8565b506138ea929150613cb6565b5b808211156138ea5760008155600101613c12565b828054613c32906148b5565b90600052602060002090601f016020900481019282613c545760008555613b18565b82601f10613c6d57805160ff1916838001178555613b18565b82800160010185558215613b185791820182811115613b18578251825591602001919060010190613b44565b808211156138ea576000613cad8282613cd3565b50600101613c99565b808211156138ea576000613cca8282613cd3565b50600101613cb6565b508054613cdf906148b5565b6000825580601f10613cef575050565b601f016020900490600052602060002090810190610cca9190613c11565b600060208284031215613d1f57600080fd5b5035919050565b600060208284031215613d3857600080fd5b81356001600160e01b03198116811461185f57600080fd5b803560ff81168114613d6157600080fd5b919050565b60008083601f840112613d7857600080fd5b5081356001600160401b03811115613d8f57600080fd5b602083019150836020828501011115613da757600080fd5b9250929050565b634e487b7160e01b600052604160045260246000fd5b604051601f8201601f191681016001600160401b0381118282101715613dec57613dec613dae565b604052919050565b600082601f830112613e0557600080fd5b81356001600160401b03811115613e1e57613e1e613dae565b613e31601f8201601f1916602001613dc4565b818152846020838601011115613e4657600080fd5b816020850160208301376000918101602001919091529392505050565b60008060008060008060008060e0898b031215613e7f57600080fd5b88359750613e8f60208a01613d50565b965060408901356001600160401b0380821115613eab57600080fd5b613eb78c838d01613d66565b909850965060608b0135915080821115613ed057600080fd5b50613edd8b828c01613df4565b945050613eec60808a01613d50565b925060a0890135915060c089013590509295985092959890939650565b60005b83811015613f24578181015183820152602001613f0c565b83811115613f33576000848401525b50505050565b60008151808452613f51816020860160208601613f09565b601f01601f19169290920160200192915050565b60208152600061185f6020830184613f39565b6001600160a01b0381168114610cca57600080fd5b60008060008060808587031215613fa357600080fd5b8435613fae81613f78565b93506020850135613fbe81613f78565b92506040850135915060608501356001600160401b03811115613fe057600080fd5b613fec87828801613df4565b91505092959194509250565b60006001600160401b0382111561401157614011613dae565b5060051b60200190565b600082601f83011261402c57600080fd5b8135602061404161403c83613ff8565b613dc4565b82815260059290921b8401810191818101908684111561406057600080fd5b8286015b8481101561408457803561407781613f78565b8352918301918301614064565b509695505050505050565b600082601f8301126140a057600080fd5b813560206140b061403c83613ff8565b82815260059290921b840181019181810190868411156140cf57600080fd5b8286015b8481101561408457803583529183019183016140d3565b600082601f8301126140fb57600080fd5b8135602061410b61403c83613ff8565b82815260059290921b8401810191818101908684111561412a57600080fd5b8286015b848110156140845780356001600160401b0381111561414d5760008081fd5b61415b8986838b0101613df4565b84525091830191830161412e565b6000806000806080858703121561417f57600080fd5b84356001600160401b038082111561419657600080fd5b6141a28883890161401b565b955060208701359150808211156141b857600080fd5b6141c48883890161408f565b945060408701359150808211156141da57600080fd5b506141e7878288016140ea565b949793965093946060013593505050565b600081518084526020808501945080840160005b838110156142315781516001600160a01b03168752958201959082019060010161420c565b509495945050505050565b600081518084526020808501945080840160005b8381101561423157815187529582019590820190600101614250565b6000815180845260208085019450848260051b860182860160005b858110156142b157838303895261429f838351613f39565b98850198925090840190600101614287565b5090979650505050505050565b6080815260006142d160808301876141f8565b82810360208401526142e3818761423c565b905082810360408401526142f7818661426c565b905082810360608401526113b9818561426c565b600080600080600060a0868803121561432357600080fd5b8535945061433360208701613d50565b935061434160408701613d50565b94979396509394606081013594506080013592915050565b634e487b7160e01b600052602160045260246000fd5b602081016008831061439157634e487b7160e01b600052602160045260246000fd5b91905290565b600080604083850312156143aa57600080fd5b8235915060208301356143bc81613f78565b809150509250929050565b600080604083850312156143da57600080fd5b823591506143ea60208401613d50565b90509250929050565b60008060008060006080868803121561440b57600080fd5b8535945061441b60208701613d50565b935060408601356001600160401b038082111561443757600080fd5b61444389838a01613d66565b9095509350606088013591508082111561445c57600080fd5b5061446988828901613df4565b9150509295509295909350565b6000806000806060858703121561448c57600080fd5b8435935061449c60208601613d50565b925060408501356001600160401b038111156144b757600080fd5b6144c387828801613d66565b95989497509550505050565b600080600080608085870312156144e557600080fd5b84356001600160401b03808211156144fc57600080fd5b6145088883890161401b565b9550602087013591508082111561451e57600080fd5b61452a8883890161408f565b9450604087013591508082111561454057600080fd5b61454c888389016140ea565b9350606087013591508082111561456257600080fd5b50613fec87828801613df4565b60008060006060848603121561458457600080fd5b833561458f81613f78565b92506020840135915060408401356001600160401b038111156145b157600080fd5b6145bd86828701613df4565b9150509250925092565b6000602082840312156145d957600080fd5b813561185f81613f78565b600080600080600060a086880312156145fc57600080fd5b853561460781613f78565b9450602086013561461781613f78565b935060408601356001600160401b038082111561463357600080fd5b61463f89838a0161408f565b9450606088013591508082111561465557600080fd5b61466189838a0161408f565b9350608088013591508082111561445c57600080fd5b6000806000806060858703121561468d57600080fd5b843561469881613f78565b93506020850135925060408501356001600160401b038111156144b757600080fd5b600082601f8301126146cb57600080fd5b813560206146db61403c83613ff8565b82815260059290921b840181019181810190868411156146fa57600080fd5b8286015b848110156140845780356001600160401b0381111561471d5760008081fd5b61472b8986838b0101613df4565b8452509183019183016146fe565b600080600080600060a0868803121561475157600080fd5b85356001600160401b038082111561476857600080fd5b61477489838a0161401b565b9650602088013591508082111561478a57600080fd5b61479689838a0161408f565b955060408801359150808211156147ac57600080fd5b6147b889838a016146ba565b945060608801359150808211156147ce57600080fd5b61466189838a016140ea565b600080604083850312156147ed57600080fd5b82356147f881613f78565b946020939093013593505050565b600080600080600060a0868803121561481e57600080fd5b853561482981613f78565b9450602086013561483981613f78565b9350604086013592506060860135915060808601356001600160401b0381111561486257600080fd5b61446988828901613df4565b8183823760009101908152919050565b60208082526018908201527f476f7665726e6f723a206f6e6c79476f7665726e616e63650000000000000000604082015260600190565b600181811c908216806148c957607f821691505b602082108114156148ea57634e487b7160e01b600052602260045260246000fd5b50919050565b60208082526021908201527f476f7665726e6f723a2070726f706f73616c206e6f74207375636365737366756040820152601b60fa1b606082015260800190565b60006020828403121561494357600080fd5b5051919050565b60a08152600061495d60a08301886141f8565b828103602084015261496f818861423c565b90508281036040840152614983818761426c565b60608401959095525050608001529392505050565b60c0815260006149ab60c08301896141f8565b82810360208401526149bd818961423c565b905082810360408401526149d1818861426c565b60608401969096525050608081019290925260a0909101529392505050565b634e487b7160e01b600052601160045260246000fd5b60008219821115614a1957614a196149f0565b500190565b600082821015614a3057614a306149f0565b500390565b608081526000614a4860808301876141f8565b8281036020840152614a5a818761423c565b90508281036040840152614a6e818661426c565b91505082606083015295945050505050565b84815260ff8416602082015282604082015260806060820152600061182e6080830184613f39565b85815260ff8516602082015283604082015260a060608201526000614ad060a0830185613f39565b8281036080840152614ae28185613f39565b98975050505050505050565b634e487b7160e01b600052603260045260246000fd5b6000600019821415614b1857614b186149f0565b5060010190565b600060208284031215614b3157600080fd5b8151801515811461185f57600080fd5b6001600160e01b0319831681528151600090614b64816004850160208701613f09565b919091016004019392505050565b6000816000190483118215151615614b8c57614b8c6149f0565b500290565b600082614bae57634e487b7160e01b600052601260045260246000fd5b500490565b60208082526021908201527f476f7665726e6f723a20696e76616c69642070726f706f73616c206c656e67746040820152600d60fb1b606082015260800190565b60006001600160401b03808316818516808303821115614c1657614c166149f0565b01949350505050565b8981526001600160a01b038916602082015261012060408201819052600090614c4a8382018b6141f8565b90508281036060840152614c5e818a61423c565b90508281036080840152614c72818961426c565b905082810360a0840152614c86818861426c565b6001600160401b0387811660c0860152861660e08501528381036101008501529050614cb28185613f39565b9c9b505050505050505050505050565b60008251614cd4818460208701613f09565b919091019291505056fe416464726573733a206c6f772d6c6576656c2063616c6c20776974682076616c7565206661696c6564a26469706673582212200fc491f9be5554344566fd53b6a0523023a6fcef1ff3e16862c05f7f6d0c7f6c64736f6c63430008080033",
  "linkReferences": {},
  "deployedLinkReferences": {}
}